{
  "contracts/CoreLoanPlatform.sol": {
    "CoreLoanPlatform": {
      "abi": [
        {
          "inputs": [],
          "name": "COLLATERAL_RATIO",
          "outputs": [
            {
              "internalType": "uint256",
              "name": "",
              "type": "uint256"
            }
          ],
          "stateMutability": "view",
          "type": "function"
        },
        {
          "inputs": [],
          "name": "INTEREST_RATE",
          "outputs": [
            {
              "internalType": "uint256",
              "name": "",
              "type": "uint256"
            }
          ],
          "stateMutability": "view",
          "type": "function"
        },
        {
          "inputs": [],
          "name": "LOAN_DURATION",
          "outputs": [
            {
              "internalType": "uint256",
              "name": "",
              "type": "uint256"
            }
          ],
          "stateMutability": "view",
          "type": "function"
        },
        {
          "inputs": [
            {
              "internalType": "uint256",
              "name": "amount",
              "type": "uint256"
            }
          ],
          "name": "borrowBTC",
          "outputs": [],
          "stateMutability": "nonpayable",
          "type": "function"
        },
        {
          "inputs": [
            {
              "internalType": "address",
              "name": "user",
              "type": "address"
            }
          ],
          "name": "calculateInterest",
          "outputs": [
            {
              "internalType": "uint256",
              "name": "",
              "type": "uint256"
            }
          ],
          "stateMutability": "view",
          "type": "function"
        },
        {
          "inputs": [
            {
              "internalType": "uint256",
              "name": "amount",
              "type": "uint256"
            }
          ],
          "name": "depositBTC",
          "outputs": [],
          "stateMutability": "nonpayable",
          "type": "function"
        },
        {
          "inputs": [
            {
              "internalType": "uint256",
              "name": "amount",
              "type": "uint256"
            }
          ],
          "name": "depositCollateral",
          "outputs": [],
          "stateMutability": "nonpayable",
          "type": "function"
        },
        {
          "inputs": [
            {
              "internalType": "address",
              "name": "user",
              "type": "address"
            }
          ],
          "name": "getBorrowableAmount",
          "outputs": [
            {
              "internalType": "uint256",
              "name": "",
              "type": "uint256"
            }
          ],
          "stateMutability": "view",
          "type": "function"
        },
        {
          "inputs": [],
          "name": "getCurrentApy",
          "outputs": [
            {
              "internalType": "uint256",
              "name": "",
              "type": "uint256"
            }
          ],
          "stateMutability": "pure",
          "type": "function"
        },
        {
          "inputs": [
            {
              "internalType": "address",
              "name": "lender",
              "type": "address"
            }
          ],
          "name": "getLenderBalance",
          "outputs": [
            {
              "internalType": "uint256",
              "name": "",
              "type": "uint256"
            }
          ],
          "stateMutability": "view",
          "type": "function"
        },
        {
          "inputs": [
            {
              "internalType": "address",
              "name": "borrower",
              "type": "address"
            }
          ],
          "name": "getLoanDetails",
          "outputs": [
            {
              "components": [
                {
                  "internalType": "uint256",
                  "name": "amount",
                  "type": "uint256"
                },
                {
                  "internalType": "uint256",
                  "name": "collateral",
                  "type": "uint256"
                },
                {
                  "internalType": "uint256",
                  "name": "timestamp",
                  "type": "uint256"
                },
                {
                  "internalType": "bool",
                  "name": "active",
                  "type": "bool"
                }
              ],
              "internalType": "struct CoreLoanPlatform.Loan",
              "name": "",
              "type": "tuple"
            }
          ],
          "stateMutability": "view",
          "type": "function"
        },
        {
          "inputs": [],
          "name": "getTotalBorrowed",
          "outputs": [
            {
              "internalType": "uint256",
              "name": "",
              "type": "uint256"
            }
          ],
          "stateMutability": "view",
          "type": "function"
        },
        {
          "inputs": [],
          "name": "getTotalStaked",
          "outputs": [
            {
              "internalType": "uint256",
              "name": "",
              "type": "uint256"
            }
          ],
          "stateMutability": "view",
          "type": "function"
        },
        {
          "inputs": [
            {
              "internalType": "address",
              "name": "user",
              "type": "address"
            }
          ],
          "name": "getUserCollateral",
          "outputs": [
            {
              "internalType": "uint256",
              "name": "",
              "type": "uint256"
            }
          ],
          "stateMutability": "view",
          "type": "function"
        },
        {
          "inputs": [
            {
              "internalType": "address",
              "name": "user",
              "type": "address"
            }
          ],
          "name": "getUserStaked",
          "outputs": [
            {
              "internalType": "uint256",
              "name": "",
              "type": "uint256"
            }
          ],
          "stateMutability": "view",
          "type": "function"
        },
        {
          "inputs": [
            {
              "internalType": "address",
              "name": "",
              "type": "address"
            }
          ],
          "name": "lenderBalances",
          "outputs": [
            {
              "internalType": "uint256",
              "name": "",
              "type": "uint256"
            }
          ],
          "stateMutability": "view",
          "type": "function"
        },
        {
          "inputs": [
            {
              "internalType": "address",
              "name": "",
              "type": "address"
            }
          ],
          "name": "loans",
          "outputs": [
            {
              "internalType": "uint256",
              "name": "amount",
              "type": "uint256"
            },
            {
              "internalType": "uint256",
              "name": "collateral",
              "type": "uint256"
            },
            {
              "internalType": "uint256",
              "name": "timestamp",
              "type": "uint256"
            },
            {
              "internalType": "bool",
              "name": "active",
              "type": "bool"
            }
          ],
          "stateMutability": "view",
          "type": "function"
        },
        {
          "inputs": [
            {
              "internalType": "address",
              "name": "user",
              "type": "address"
            }
          ],
          "name": "repayLoan",
          "outputs": [],
          "stateMutability": "nonpayable",
          "type": "function"
        },
        {
          "inputs": [
            {
              "internalType": "address",
              "name": "",
              "type": "address"
            }
          ],
          "name": "userCollateral",
          "outputs": [
            {
              "internalType": "uint256",
              "name": "",
              "type": "uint256"
            }
          ],
          "stateMutability": "view",
          "type": "function"
        },
        {
          "inputs": [
            {
              "internalType": "uint256",
              "name": "amount",
              "type": "uint256"
            }
          ],
          "name": "withdrawBTC",
          "outputs": [],
          "stateMutability": "nonpayable",
          "type": "function"
        },
        {
          "inputs": [
            {
              "internalType": "uint256",
              "name": "amount",
              "type": "uint256"
            }
          ],
          "name": "withdrawCollateral",
          "outputs": [],
          "stateMutability": "nonpayable",
          "type": "function"
        }
      ],
      "evm": {
        "bytecode": {
          "linkReferences": {},
          "object": "608060405260008055600060015534801561001957600080fd5b50610383806100296000396000f3fe608060405234801561001057600080fd5b50600436106101775760003560e01c8063b6f7132f116100d8578063dac3fc3f1161008c578063e8a7da8e11610066578063e8a7da8e1461025d578063f4925de51461017c578063f69f1e4a146102a557600080fd5b8063dac3fc3f146101bb578063e02a4dfd14610253578063e11932cf146101bb57600080fd5b8063bd09085a116100bd578063bd09085a146101bb578063d1a40564146101ad578063d9e69a051461024b57600080fd5b8063b6f7132f146101bb578063bad4a01f146101ad57600080fd5b8063691d1eb31161012f57806390b4588b1161011457806390b4588b146101ad578063a27a944d1461022b578063a6b6d798146101ad57600080fd5b8063691d1eb3146101bb57806373b4086b146101cf57600080fd5b8063190ef1e611610160578063190ef1e6146101925780635b72a33a146101a55780636112fe2e146101ad57600080fd5b80630307c4a11461017c5780630917e7761461017c575b600080fd5b60005b6040519081526020015b60405180910390f35b6101a36101a03660046102f7565b50565b005b61017f600581565b6101a36101a0366004610334565b61017f6101c93660046102f7565b50600090565b6102096101dd3660046102f7565b600260208190526000918252604090912080546001820154928201546003909201549092919060ff1684565b6040805194855260208501939093529183015215156060820152608001610189565b61017f6102393660046102f7565b60036020526000908152604090205481565b61017f609681565b61017f62278d0081565b61027061026b3660046102f7565b6102c5565b604051610189919081518152602080830151908201526040808301519082015260609182015115159181019190915260800190565b61017f6102b33660046102f7565b60046020526000908152604090205481565b6102f260405180608001604052806000815260200160008152602001600081526020016000151581525090565b919050565b60006020828403121561030957600080fd5b813573ffffffffffffffffffffffffffffffffffffffff8116811461032d57600080fd5b9392505050565b60006020828403121561034657600080fd5b503591905056fea26469706673582212201c514c4d0f07d24952ece93d69568731dd4966bce6ef5accec93ed4b2c7fbf6e64736f6c63430008130033",
          "opcodes": "PUSH1 0x80 PUSH1 0x40 MSTORE PUSH1 0x0 DUP1 SSTORE PUSH1 0x0 PUSH1 0x1 SSTORE CALLVALUE DUP1 ISZERO PUSH2 0x19 JUMPI PUSH1 0x0 DUP1 REVERT JUMPDEST POP PUSH2 0x383 DUP1 PUSH2 0x29 PUSH1 0x0 CODECOPY PUSH1 0x0 RETURN INVALID PUSH1 0x80 PUSH1 0x40 MSTORE CALLVALUE DUP1 ISZERO PUSH2 0x10 JUMPI PUSH1 0x0 DUP1 REVERT JUMPDEST POP PUSH1 0x4 CALLDATASIZE LT PUSH2 0x177 JUMPI PUSH1 0x0 CALLDATALOAD PUSH1 0xE0 SHR DUP1 PUSH4 0xB6F7132F GT PUSH2 0xD8 JUMPI DUP1 PUSH4 0xDAC3FC3F GT PUSH2 0x8C JUMPI DUP1 PUSH4 0xE8A7DA8E GT PUSH2 0x66 JUMPI DUP1 PUSH4 0xE8A7DA8E EQ PUSH2 0x25D JUMPI DUP1 PUSH4 0xF4925DE5 EQ PUSH2 0x17C JUMPI DUP1 PUSH4 0xF69F1E4A EQ PUSH2 0x2A5 JUMPI PUSH1 0x0 DUP1 REVERT JUMPDEST DUP1 PUSH4 0xDAC3FC3F EQ PUSH2 0x1BB JUMPI DUP1 PUSH4 0xE02A4DFD EQ PUSH2 0x253 JUMPI DUP1 PUSH4 0xE11932CF EQ PUSH2 0x1BB JUMPI PUSH1 0x0 DUP1 REVERT JUMPDEST DUP1 PUSH4 0xBD09085A GT PUSH2 0xBD JUMPI DUP1 PUSH4 0xBD09085A EQ PUSH2 0x1BB JUMPI DUP1 PUSH4 0xD1A40564 EQ PUSH2 0x1AD JUMPI DUP1 PUSH4 0xD9E69A05 EQ PUSH2 0x24B JUMPI PUSH1 0x0 DUP1 REVERT JUMPDEST DUP1 PUSH4 0xB6F7132F EQ PUSH2 0x1BB JUMPI DUP1 PUSH4 0xBAD4A01F EQ PUSH2 0x1AD JUMPI PUSH1 0x0 DUP1 REVERT JUMPDEST DUP1 PUSH4 0x691D1EB3 GT PUSH2 0x12F JUMPI DUP1 PUSH4 0x90B4588B GT PUSH2 0x114 JUMPI DUP1 PUSH4 0x90B4588B EQ PUSH2 0x1AD JUMPI DUP1 PUSH4 0xA27A944D EQ PUSH2 0x22B JUMPI DUP1 PUSH4 0xA6B6D798 EQ PUSH2 0x1AD JUMPI PUSH1 0x0 DUP1 REVERT JUMPDEST DUP1 PUSH4 0x691D1EB3 EQ PUSH2 0x1BB JUMPI DUP1 PUSH4 0x73B4086B EQ PUSH2 0x1CF JUMPI PUSH1 0x0 DUP1 REVERT JUMPDEST DUP1 PUSH4 0x190EF1E6 GT PUSH2 0x160 JUMPI DUP1 PUSH4 0x190EF1E6 EQ PUSH2 0x192 JUMPI DUP1 PUSH4 0x5B72A33A EQ PUSH2 0x1A5 JUMPI DUP1 PUSH4 0x6112FE2E EQ PUSH2 0x1AD JUMPI PUSH1 0x0 DUP1 REVERT JUMPDEST DUP1 PUSH4 0x307C4A1 EQ PUSH2 0x17C JUMPI DUP1 PUSH4 0x917E776 EQ PUSH2 0x17C JUMPI JUMPDEST PUSH1 0x0 DUP1 REVERT JUMPDEST PUSH1 0x0 JUMPDEST PUSH1 0x40 MLOAD SWAP1 DUP2 MSTORE PUSH1 0x20 ADD JUMPDEST PUSH1 0x40 MLOAD DUP1 SWAP2 SUB SWAP1 RETURN JUMPDEST PUSH2 0x1A3 PUSH2 0x1A0 CALLDATASIZE PUSH1 0x4 PUSH2 0x2F7 JUMP JUMPDEST POP JUMP JUMPDEST STOP JUMPDEST PUSH2 0x17F PUSH1 0x5 DUP2 JUMP JUMPDEST PUSH2 0x1A3 PUSH2 0x1A0 CALLDATASIZE PUSH1 0x4 PUSH2 0x334 JUMP JUMPDEST PUSH2 0x17F PUSH2 0x1C9 CALLDATASIZE PUSH1 0x4 PUSH2 0x2F7 JUMP JUMPDEST POP PUSH1 0x0 SWAP1 JUMP JUMPDEST PUSH2 0x209 PUSH2 0x1DD CALLDATASIZE PUSH1 0x4 PUSH2 0x2F7 JUMP JUMPDEST PUSH1 0x2 PUSH1 0x20 DUP2 SWAP1 MSTORE PUSH1 0x0 SWAP2 DUP3 MSTORE PUSH1 0x40 SWAP1 SWAP2 KECCAK256 DUP1 SLOAD PUSH1 0x1 DUP3 ADD SLOAD SWAP3 DUP3 ADD SLOAD PUSH1 0x3 SWAP1 SWAP3 ADD SLOAD SWAP1 SWAP3 SWAP2 SWAP1 PUSH1 0xFF AND DUP5 JUMP JUMPDEST PUSH1 0x40 DUP1 MLOAD SWAP5 DUP6 MSTORE PUSH1 0x20 DUP6 ADD SWAP4 SWAP1 SWAP4 MSTORE SWAP2 DUP4 ADD MSTORE ISZERO ISZERO PUSH1 0x60 DUP3 ADD MSTORE PUSH1 0x80 ADD PUSH2 0x189 JUMP JUMPDEST PUSH2 0x17F PUSH2 0x239 CALLDATASIZE PUSH1 0x4 PUSH2 0x2F7 JUMP JUMPDEST PUSH1 0x3 PUSH1 0x20 MSTORE PUSH1 0x0 SWAP1 DUP2 MSTORE PUSH1 0x40 SWAP1 KECCAK256 SLOAD DUP2 JUMP JUMPDEST PUSH2 0x17F PUSH1 0x96 DUP2 JUMP JUMPDEST PUSH2 0x17F PUSH3 0x278D00 DUP2 JUMP JUMPDEST PUSH2 0x270 PUSH2 0x26B CALLDATASIZE PUSH1 0x4 PUSH2 0x2F7 JUMP JUMPDEST PUSH2 0x2C5 JUMP JUMPDEST PUSH1 0x40 MLOAD PUSH2 0x189 SWAP2 SWAP1 DUP2 MLOAD DUP2 MSTORE PUSH1 0x20 DUP1 DUP4 ADD MLOAD SWAP1 DUP3 ADD MSTORE PUSH1 0x40 DUP1 DUP4 ADD MLOAD SWAP1 DUP3 ADD MSTORE PUSH1 0x60 SWAP2 DUP3 ADD MLOAD ISZERO ISZERO SWAP2 DUP2 ADD SWAP2 SWAP1 SWAP2 MSTORE PUSH1 0x80 ADD SWAP1 JUMP JUMPDEST PUSH2 0x17F PUSH2 0x2B3 CALLDATASIZE PUSH1 0x4 PUSH2 0x2F7 JUMP JUMPDEST PUSH1 0x4 PUSH1 0x20 MSTORE PUSH1 0x0 SWAP1 DUP2 MSTORE PUSH1 0x40 SWAP1 KECCAK256 SLOAD DUP2 JUMP JUMPDEST PUSH2 0x2F2 PUSH1 0x40 MLOAD DUP1 PUSH1 0x80 ADD PUSH1 0x40 MSTORE DUP1 PUSH1 0x0 DUP2 MSTORE PUSH1 0x20 ADD PUSH1 0x0 DUP2 MSTORE PUSH1 0x20 ADD PUSH1 0x0 DUP2 MSTORE PUSH1 0x20 ADD PUSH1 0x0 ISZERO ISZERO DUP2 MSTORE POP SWAP1 JUMP JUMPDEST SWAP2 SWAP1 POP JUMP JUMPDEST PUSH1 0x0 PUSH1 0x20 DUP3 DUP5 SUB SLT ISZERO PUSH2 0x309 JUMPI PUSH1 0x0 DUP1 REVERT JUMPDEST DUP2 CALLDATALOAD PUSH20 0xFFFFFFFFFFFFFFFFFFFFFFFFFFFFFFFFFFFFFFFF DUP2 AND DUP2 EQ PUSH2 0x32D JUMPI PUSH1 0x0 DUP1 REVERT JUMPDEST SWAP4 SWAP3 POP POP POP JUMP JUMPDEST PUSH1 0x0 PUSH1 0x20 DUP3 DUP5 SUB SLT ISZERO PUSH2 0x346 JUMPI PUSH1 0x0 DUP1 REVERT JUMPDEST POP CALLDATALOAD SWAP2 SWAP1 POP JUMP INVALID LOG2 PUSH5 0x6970667358 0x22 SLT KECCAK256 SHR MLOAD 0x4C 0x4D 0xF SMOD 0xD2 0x49 MSTORE 0xEC 0xE9 RETURNDATASIZE PUSH10 0x568731DD4966BCE6EF5A 0xCC 0xEC SWAP4 0xED 0x4B 0x2C PUSH32 0xBF6E64736F6C6343000813003300000000000000000000000000000000000000 "
        },
        "methodIdentifiers": {
          "COLLATERAL_RATIO()": "d9e69a05",
          "INTEREST_RATE()": "5b72a33a",
          "LOAN_DURATION()": "e02a4dfd",
          "borrowBTC(uint256)": "d1a40564",
          "calculateInterest(address)": "e11932cf",
          "depositBTC(uint256)": "a6b6d798",
          "depositCollateral(uint256)": "bad4a01f",
          "getBorrowableAmount(address)": "691d1eb3",
          "getCurrentApy()": "f4925de5",
          "getLenderBalance(address)": "bd09085a",
          "getLoanDetails(address)": "e8a7da8e",
          "getTotalBorrowed()": "0307c4a1",
          "getTotalStaked()": "0917e776",
          "getUserCollateral(address)": "b6f7132f",
          "getUserStaked(address)": "dac3fc3f",
          "lenderBalances(address)": "a27a944d",
          "loans(address)": "73b4086b",
          "repayLoan(address)": "190ef1e6",
          "userCollateral(address)": "f69f1e4a",
          "withdrawBTC(uint256)": "90b4588b",
          "withdrawCollateral(uint256)": "6112fe2e"
        }
      }
    }
  }
}