{
    "contractName": "CoreLoanPlatform",
    "abi": [
        {
            "inputs": [],
            "name": "COLLATERAL_RATIO",
            "outputs": [
                {
                    "internalType": "uint256",
                    "name": "",
                    "type": "uint256"
                }
            ],
            "stateMutability": "view",
            "type": "function"
        },
        {
            "inputs": [],
            "name": "INTEREST_RATE",
            "outputs": [
                {
                    "internalType": "uint256",
                    "name": "",
                    "type": "uint256"
                }
            ],
            "stateMutability": "view",
            "type": "function"
        },
        {
            "inputs": [],
            "name": "LOAN_DURATION",
            "outputs": [
                {
                    "internalType": "uint256",
                    "name": "",
                    "type": "uint256"
                }
            ],
            "stateMutability": "view",
            "type": "function"
        },
        {
            "inputs": [
                {
                    "internalType": "uint256",
                    "name": "amount",
                    "type": "uint256"
                }
            ],
            "name": "borrowBTC",
            "outputs": [],
            "stateMutability": "nonpayable",
            "type": "function"
        },
        {
            "inputs": [
                {
                    "internalType": "address",
                    "name": "user",
                    "type": "address"
                }
            ],
            "name": "calculateInterest",
            "outputs": [
                {
                    "internalType": "uint256",
                    "name": "",
                    "type": "uint256"
                }
            ],
            "stateMutability": "view",
            "type": "function"
        },
        {
            "inputs": [
                {
                    "internalType": "uint256",
                    "name": "amount",
                    "type": "uint256"
                }
            ],
            "name": "depositBTC",
            "outputs": [],
            "stateMutability": "nonpayable",
            "type": "function"
        },
        {
            "inputs": [
                {
                    "internalType": "uint256",
                    "name": "amount",
                    "type": "uint256"
                }
            ],
            "name": "depositCollateral",
            "outputs": [],
            "stateMutability": "nonpayable",
            "type": "function"
        },
        {
            "inputs": [
                {
                    "internalType": "address",
                    "name": "user",
                    "type": "address"
                }
            ],
            "name": "getBorrowableAmount",
            "outputs": [
                {
                    "internalType": "uint256",
                    "name": "",
                    "type": "uint256"
                }
            ],
            "stateMutability": "view",
            "type": "function"
        },
        {
            "inputs": [],
            "name": "getCurrentApy",
            "outputs": [
                {
                    "internalType": "uint256",
                    "name": "",
                    "type": "uint256"
                }
            ],
            "stateMutability": "pure",
            "type": "function"
        },
        {
            "inputs": [
                {
                    "internalType": "address",
                    "name": "lender",
                    "type": "address"
                }
            ],
            "name": "getLenderBalance",
            "outputs": [
                {
                    "internalType": "uint256",
                    "name": "",
                    "type": "uint256"
                }
            ],
            "stateMutability": "view",
            "type": "function"
        },
        {
            "inputs": [
                {
                    "internalType": "address",
                    "name": "borrower",
                    "type": "address"
                }
            ],
            "name": "getLoanDetails",
            "outputs": [
                {
                    "components": [
                        {
                            "internalType": "uint256",
                            "name": "amount",
                            "type": "uint256"
                        },
                        {
                            "internalType": "uint256",
                            "name": "collateral",
                            "type": "uint256"
                        },
                        {
                            "internalType": "uint256",
                            "name": "timestamp",
                            "type": "uint256"
                        },
                        {
                            "internalType": "bool",
                            "name": "active",
                            "type": "bool"
                        }
                    ],
                    "internalType": "struct CoreLoanPlatform.Loan",
                    "name": "",
                    "type": "tuple"
                }
            ],
            "stateMutability": "view",
            "type": "function"
        },
        {
            "inputs": [],
            "name": "getTotalBorrowed",
            "outputs": [
                {
                    "internalType": "uint256",
                    "name": "",
                    "type": "uint256"
                }
            ],
            "stateMutability": "view",
            "type": "function"
        },
        {
            "inputs": [],
            "name": "getTotalStaked",
            "outputs": [
                {
                    "internalType": "uint256",
                    "name": "",
                    "type": "uint256"
                }
            ],
            "stateMutability": "view",
            "type": "function"
        },
        {
            "inputs": [
                {
                    "internalType": "address",
                    "name": "user",
                    "type": "address"
                }
            ],
            "name": "getUserCollateral",
            "outputs": [
                {
                    "internalType": "uint256",
                    "name": "",
                    "type": "uint256"
                }
            ],
            "stateMutability": "view",
            "type": "function"
        },
        {
            "inputs": [
                {
                    "internalType": "address",
                    "name": "user",
                    "type": "address"
                }
            ],
            "name": "getUserStaked",
            "outputs": [
                {
                    "internalType": "uint256",
                    "name": "",
                    "type": "uint256"
                }
            ],
            "stateMutability": "view",
            "type": "function"
        },
        {
            "inputs": [
                {
                    "internalType": "address",
                    "name": "",
                    "type": "address"
                }
            ],
            "name": "lenderBalances",
            "outputs": [
                {
                    "internalType": "uint256",
                    "name": "",
                    "type": "uint256"
                }
            ],
            "stateMutability": "view",
            "type": "function"
        },
        {
            "inputs": [
                {
                    "internalType": "address",
                    "name": "",
                    "type": "address"
                }
            ],
            "name": "loans",
            "outputs": [
                {
                    "internalType": "uint256",
                    "name": "amount",
                    "type": "uint256"
                },
                {
                    "internalType": "uint256",
                    "name": "collateral",
                    "type": "uint256"
                },
                {
                    "internalType": "uint256",
                    "name": "timestamp",
                    "type": "uint256"
                },
                {
                    "internalType": "bool",
                    "name": "active",
                    "type": "bool"
                }
            ],
            "stateMutability": "view",
            "type": "function"
        },
        {
            "inputs": [
                {
                    "internalType": "address",
                    "name": "user",
                    "type": "address"
                }
            ],
            "name": "repayLoan",
            "outputs": [],
            "stateMutability": "nonpayable",
            "type": "function"
        },
        {
            "inputs": [
                {
                    "internalType": "address",
                    "name": "",
                    "type": "address"
                }
            ],
            "name": "userCollateral",
            "outputs": [
                {
                    "internalType": "uint256",
                    "name": "",
                    "type": "uint256"
                }
            ],
            "stateMutability": "view",
            "type": "function"
        },
        {
            "inputs": [
                {
                    "internalType": "uint256",
                    "name": "amount",
                    "type": "uint256"
                }
            ],
            "name": "withdrawBTC",
            "outputs": [],
            "stateMutability": "nonpayable",
            "type": "function"
        },
        {
            "inputs": [
                {
                    "internalType": "uint256",
                    "name": "amount",
                    "type": "uint256"
                }
            ],
            "name": "withdrawCollateral",
            "outputs": [],
            "stateMutability": "nonpayable",
            "type": "function"
        }
    ],
    "bytecode": "608060405260008055600060015534801561001957600080fd5b50610336806100296000396000f3fe608060405234801561001057600080fd5b50600436106101375760003560e01c8063b6f7132f116100b8578063dac3fc3f1161007c578063dac3fc3f1461017b578063e02a4dfd14610213578063e11932cf1461017b578063e8a7da8e1461021d578063f4925de51461013c578063f69f1e4a1461026557600080fd5b8063b6f7132f1461017b578063bad4a01f1461016d578063bd09085a1461017b578063d1a405641461016d578063d9e69a051461020b57600080fd5b8063691d1eb3116100ff578063691d1eb31461017b57806373b4086b1461018f57806390b4588b1461016d578063a27a944d146101eb578063a6b6d7981461016d57600080fd5b80630307c4a11461013c5780630917e7761461013c578063190ef1e6146101525780635b72a33a146101655780636112fe2e1461016d575b600080fd5b60005b6040519081526020015b60405180910390f35b6101636101603660046102b7565b50565b005b61013f600581565b6101636101603660046102e7565b61013f6101893660046102b7565b50600090565b6101c961019d3660046102b7565b600260208190526000918252604090912080546001820154928201546003909201549092919060ff1684565b6040805194855260208501939093529183015215156060820152608001610149565b61013f6101f93660046102b7565b60036020526000908152604090205481565b61013f609681565b61013f62278d0081565b61023061022b3660046102b7565b610285565b604051610149919081518152602080830151908201526040808301519082015260609182015115159181019190915260800190565b61013f6102733660046102b7565b60046020526000908152604090205481565b6102b260405180608001604052806000815260200160008152602001600081526020016000151581525090565b919050565b6000602082840312156102c957600080fd5b81356001600160a01b03811681146102e057600080fd5b9392505050565b6000602082840312156102f957600080fd5b503591905056fea2646970667358221220fba0e57cff4ce71d7b95b21d55a40a97e4354a1127eb717222d8173e54a1792864736f6c63430008130033",
    "sourcePath": "d:/Meta School/build-lending-dapp-on-core/contracts/CoreLoanPlatform.sol",
    "compiler": {
        "name": "solc",
        "version": "0.8.19+commit.7dd6d404"
    },
    "functionHashes": {
        "COLLATERAL_RATIO()": "d9e69a05",
        "INTEREST_RATE()": "5b72a33a",
        "LOAN_DURATION()": "e02a4dfd",
        "borrowBTC(uint256)": "d1a40564",
        "calculateInterest(address)": "e11932cf",
        "depositBTC(uint256)": "a6b6d798",
        "depositCollateral(uint256)": "bad4a01f",
        "getBorrowableAmount(address)": "691d1eb3",
        "getCurrentApy()": "f4925de5",
        "getLenderBalance(address)": "bd09085a",
        "getLoanDetails(address)": "e8a7da8e",
        "getTotalBorrowed()": "0307c4a1",
        "getTotalStaked()": "0917e776",
        "getUserCollateral(address)": "b6f7132f",
        "getUserStaked(address)": "dac3fc3f",
        "lenderBalances(address)": "a27a944d",
        "loans(address)": "73b4086b",
        "repayLoan(address)": "190ef1e6",
        "userCollateral(address)": "f69f1e4a",
        "withdrawBTC(uint256)": "90b4588b",
        "withdrawCollateral(uint256)": "6112fe2e"
    },
    "gasEstimates": {
        "creation": {
            "codeDepositCost": "164400",
            "executionCost": "10220",
            "totalCost": "174620"
        },
        "external": {
            "COLLATERAL_RATIO()": "295",
            "INTEREST_RATE()": "274",
            "LOAN_DURATION()": "228",
            "borrowBTC(uint256)": "300",
            "calculateInterest(address)": "375",
            "depositBTC(uint256)": "322",
            "depositCollateral(uint256)": "256",
            "getBorrowableAmount(address)": "332",
            "getCurrentApy()": "280",
            "getLenderBalance(address)": "376",
            "getLoanDetails(address)": "650",
            "getTotalBorrowed()": "194",
            "getTotalStaked()": "216",
            "getUserCollateral(address)": "332",
            "getUserStaked(address)": "331",
            "lenderBalances(address)": "2562",
            "loans(address)": "8952",
            "repayLoan(address)": "325",
            "userCollateral(address)": "2605",
            "withdrawBTC(uint256)": "278",
            "withdrawCollateral(uint256)": "323"
        }
    }
}